:020000040800F2
:105C000000500020715D0008D5610008F7610008B0
:105C100017620008396200085B620008000000009B
:105C2000000000000000000000000000C15D00084E
:105C3000C15D000800000000C15D0008C15D0008F2
:105C4000C15D0008C15D0008C15D0008C15D0008BC
:105C5000C15D0008C15D0008C15D0008C15D0008AC
:105C6000C15D0008C15D0008C15D0008C15D00089C
:105C7000C15D0008C15D0008C15D0008C15D00088C
:105C8000C15D0008C15D0008C15D0008C15D00087C
:105C9000C15D0008C15D0008C15D0008C15D00086C
:105CA000C15D0008C15D0008C15D0008C15D00085C
:105CB000C15D0008C15D0008C15D0008C15D00084C
:105CC000C15D0008C15D0008C15D0008C15D00083C
:105CD000C15D0008D9630008196400082D6400083C
:105CE000C15D0008C15D000800000000C15D000842
:105CF000C15D0008C15D0008C15D0008C15D00080C
:105D0000C15D0008C15D0008C15D0008C15D0008FB
:105D1000C15D0008C15D0008C15D0008C15D0008EB
:105D2000C15D0008C15D0008C15D0008C15D0008DB
:105D300010B5054C237833B9044B13B10448AFF3C5
:105D400000800123237010BD3404002000000000F7
:105D5000A86B000808B5034B1BB103490348AFF318
:105D6000008008BD0000000038040020A86B000877
:105D70000D4885460D480E490E4A002302E0D458CE
:105D8000C4500433C4188C42F9D30B4A0B4C002383
:105D900001E013600432A242FBD300F0CFF900F01F
:105DA00023FE00F00EF8FEE7005000200000002067
:105DB00034040020E86B000834040020AC04002008
:105DC000FEE780B500AF00F005F800F009F8002309
:105DD000184680BD80B500AF00F074FD00BF80BDE7
:105DE00080B500AF00F0C0FD00F001F8FAE780B424
:105DF00083B000AF0023FB800BE00023BB8002E0F8
:105E0000BB880133BB80BB88632BF9D9FB88013386
:105E1000FB80FB88632BF0D900BF0C37BD4680BCEC
:105E2000704700000000000090B484B000AFC7E9E4
:105E300002017A60D7E902345B494FF000029442D4
:105E400008BF8B4253D058494FF00002A24208BF0E
:105E5000994214D355494FF00002944208BF8B4237
:105E600023D04DA2D2E90012944208BF8B422DD01C
:105E70004F494FF00002944208BF8B4284E04D49E5
:105E80004FF00002944208BF8B4256D044A2D2E9A0
:105E90000012944208BF8B4263D047494FF0000282
:105EA000944208BF8B4235D06EE07B6800221A60B6
:105EB0007B684FF480225A607B6800229A607B687E
:105EC0000022DA607B6800221A615DE07B680022B4
:105ED0001A607B684FF4E0125A607B6880229A60F7
:105EE0007B680022DA607B6800221A614CE07B68E4
:105EF00000221A607B684FF480125A607B6800228F
:105F00009A607B684FF48062DA607B684FF40052DD
:105F10001A6139E07B6800221A607B684FF4A01296
:105F20005A607B6800229A607B684FF48062DA6076
:105F30007B684FF400521A6126E07B684FF4003210
:105F40001A607B684FF450125A607B6800229A6096
:105F50007B684FF48062DA607B684FF480621A617C
:105F600012E07B6800221A607B684FF4E0125A60EE
:105F70007B6800229A607B684FF48062DA607B68FD
:105F80004FF480621A6100BF00BF1037BD4690BC5D
:105F9000704700BFAFF300800051250200000000F1
:105FA00000A24A0400000000006CDC0200366E0112
:105FB00000127A0000879303007E560380B400AF7E
:105FC0000A4B1B68094A43F010031360074B1B6818
:105FD000064A23F007031360044B1B68034A43F08F
:105FE0000203136000BFBD4680BC70470020024022
:105FF00080B400AF034B044A9A6000BFBD4680BC2A
:10600000704700BF00ED00E0005C000880B584B080
:1060100000AF78600123FB734FF4A063BB60464B75
:106020001B68454A43F48033136002E0BB68013BC0
:10603000BB60414B1B6803F40033002B02D1BB68EB
:10604000002BF3D13C4B1B6803F40033002B6CD0C6
:10605000FFF7B4FF384B5A687B689B683649134397
:106060004B60354B5A687B68DB68334913434B60A0
:10607000314B5A687B681B692F4913434B602E4B89
:106080005B682D4A23F47C1353602B4B5A687B6862
:1060900059687B681B680B431343274A43F48033DA
:1060A0005360254B1B68244A43F0807313606FF0E4
:1060B0007F43BB6002E0BB68013BBB601E4B1B68BB
:1060C00003F00073002B02D1BB68002BF3D11A4BF5
:1060D0001B6803F00073002B24D0174B5B68164A33
:1060E00023F003035360144B5B68134A43F002032D
:1060F00053606FF07F43BB6002E0BB68013BBB6055
:106100000D4B5B6803F00C03082B02D0BB68002B1F
:10611000F3D1094B5B6803F00803082B07D1012377
:10612000FB7304E00123FB7301E00123FB73FB7BA2
:1061300018461037BD4680BD0010024080B586B0BD
:1061400000AF204B1B681F4A43F0010313601D4B37
:106150005A681C491C4B13404B601A4B1B68194A68
:1061600023F0847323F480331360164B1B68154AA5
:1061700023F480231360134B5B68124A23F4FE035D
:106180005360104B4FF41F029A603B1D1A460F4894
:106190004FF00001FFF748FE3B1D1846FFF736FFA2
:1061A0000346002B08D00A4B01225A70084BA52247
:1061B0001A70074B0E229A70FFF71AFF00BF1837AC
:1061C000BD4680BD001002400000FFF8006CDC02FC
:1061D0000000002080B483B000AF0123FB7101E018
:1061E0000223FB71FB79DBB2002BF9D100BF0C3726
:1061F000BD4680BC704780B483B000AF01237B6094
:1062000001E002237B607B68002BFAD100BF0C37D2
:10621000BD4680BC704780B483B000AF0123FB71E2
:1062200001E00223FB71FB79DBB2002BF9D100BF47
:106230000C37BD4680BC704780B483B000AF0123EB
:10624000FB7101E00223FB71FB79DBB2002BF9D17A
:1062500000BF0C37BD4680BC704780B483B000AF30
:106260000123FB7101E00223FB71FB79DBB2002B00
:10627000F9D100BF0C37BD4680BC704780B485B0F3
:1062800000AF03463960FB710123FB73FB79002BE0
:1062900003D13B680F4A1A6016E0FB79012B03D14A
:1062A0003B680D4A1A600FE0FB79022B03D13B6873
:1062B0000A4A1A6008E0FB79032B03D13B68084ABD
:1062C0001A6001E00123FB73FB7B18461437BD46BF
:1062D00080BC704700080140000C014000100140E4
:1062E0000014014080B586B000AF78600123FB75D3
:1062F0007B681B7807F10C0211461846FFF7BEFFBA
:106300000346002B47D07B685B78072B02D8FB68DD
:106310003B6102E0FB6804333B613B691A687B68C0
:106320005B7803F007039B00032101FA03F3DB43CF
:106330001A403B691A603B691A687B689B7819466A
:106340007B685B7803F007039B0001FA03F31A43B1
:106350003B691A603B691A687B685B7803F0070346
:106360009B000233032101FA03F3DB431A403B692C
:106370001A603B691A687B68DB7819467B685B7832
:1063800003F007039B00023301FA03F31A433B694E
:106390001A600123FB75FB7D18461837BD4680BD8A
:1063A00080B483B000AF0346FB7197F90730002B30
:1063B0000BDBFB7903F01F02064997F907305B09F5
:1063C000012000FA02F241F8232000BF0C37BD463D
:1063D00080BC704700E100E080B582B000AF0C4B9C
:1063E0001B889BB203F02003002B0CD0094B1B68C9
:1063F000002B08D0064B9B889BB2FB71054B1B689A
:10640000FA791046984700BF0837BD4680BD00BFE7
:10641000003801406C04002080B400AF024B1B88A0
:1064200000BFBD4680BC70470044004080B400AF50
:10643000024B1B8800BFBD4680BC7047004800402F
:1064400080B485B000AF0346FB710023FB60FB798D
:10645000022B06D0032B07D0012B08D1084BFB6081
:1064600008E0084BFB6005E0074BFB6002E00023FF
:10647000FB6000BFFB6818461437BD4680BC704700
:1064800000380140004400400048004080B483B020
:1064900000AF0346FB71FB79042B0ED8FB79002B70
:1064A0000BD0FB79013B084A12F83330002B02D1A4
:1064B0000123FB7101E00123FB71FB7918460C37C6
:1064C000BD4680BC704700BF5004002090B585B029
:1064D00000AF78600023FB607B68002B41D07B68B5
:1064E0001B781846FFF7D2FF0346002B39D0786897
:1064F00000F040F80346002B33D07B681B78013B4B
:106500007A681178194A02F833107B681A787B6828
:106510001B785C1E1046FFF793FF0146134AE30009
:10652000134459607B681B78013B7A6851780F4AA5
:10653000DB0013440A465A707B685B7803F0010362
:10654000002B07D07B681B78013B7A68926808496A
:1065500041F823207B681B78013BDB00034A13448E
:10656000FB60FB6818461437BD4690BD5004002000
:106570006C04002080B584B000AF78600123FB7309
:106580007B681B781846FFF75BFFB860BB68002B81
:1065900000F093807B681B78184600F093F8BB6886
:1065A00000229A81BB6800221A817B685B78032BEA
:1065B00003D07B685B78012B07D1BB689B899BB2BA
:1065C00043F004039AB2BB689A81BB689B899AB274
:1065D0007B689B789BB21B039BB213439AB2BB6848
:1065E0009A817B681B79022B13D0BB689B899BB275
:1065F00043F480639AB2BB689A81BB689B899AB264
:106600007B681B799BB25B029BB213439AB2BB6857
:106610009A81BB681B8A9AB27B68DB789BB21B03AA
:106620009BB213439AB2BB681A82BB6840F6C4128D
:106630001A817B685B7803F00203DBB2002B07D082
:10664000BB689B899BB243F008039AB2BB689A81EE
:106650007B685B7803F00103DBB2002B23D0BB68BF
:106660009B899BB243F004039AB2BB689A81BB68D2
:106670009B899BB243F020039AB2BB689A817B68E6
:106680001B78022B07D0032B09D0012B0BD125201F
:10669000FFF786FE07E02620FFF782FE03E02720B3
:1066A000FFF77EFE00BFBB689B899BB243F400539B
:1066B0009AB2BB689A810123FB73FB7B18461037A3
:1066C000BD4680BD80B483B000AF0346FB71FB794B
:1066D000022B0BD0032B10D0012B00D014E00D4B5C
:1066E0009B690C4A43F4804393610DE0094BDB69DD
:1066F000084A43F40033D36106E0064BDB69054AE0
:1067000043F48023D36100BF00BF0C37BD4680BC7B
:10671000704700BF0010024080B483B000AF7860C3
:106720000B46FB707B68002B0DD000BF7B685B685D
:106730001B889BB203F04003002BF7D07B685B689B
:10674000FA7892B29A8000BF0C37BD4680BC704781
:1067500080B586B000AFF860B9601346FB800023B7
:10676000FB820AE0FB8ABA6813441B781946F86872
:10677000FFF7D2FFFB8A0133FB82FA8AFB889A4239
:10678000F0D300BF1837BD4680BD000080B485B08F
:1067900000AF78600023FB737B68B3F900301846C4
:1067A0007B68B3F9023001331946094BA3FB01237F
:1067B000DA0813469B0013445B00CA1A904201D1C9
:1067C0000123FB73FB7B18461437BD4680BC704722
:1067D000CDCCCCCC80B485B000AF78600023FB7307
:1067E0007B68B3F90030B3F1FF3F07D17B68B3F9A1
:1067F0000230B3F1FF3F01D10123FB73FB7B18464D
:106800001437BD4680BC704780B485B000AF786057
:106810007B684FF6FF721A807B684FF6FF725A80D2
:106820000023FB8107E0FB897A68134400221A7178
:10683000FB890133FB81FB89092BF4D900BF143795
:10684000BD4680BC7047000080B584B000AF786062
:106850000B46FB700123FB737868FFF797FF034635
:10686000002B26D17868FFF7B5FF0346002B06D032
:106870007B6800221A807B6800225A8010E07B68C7
:10688000B3F90230013319460D4BA3FB0123DA089B
:1068900013469B0013445B00CA1A12B27B685A80ED
:1068A0007B68B3F902301A467B681344FA781A7190
:1068B00001E00023FB73FB7B18461037BD4680BD0B
:1068C000CDCCCCCC80B588B000AF1C48FFF79CFF86
:1068D00000233B7509237B750223BB750323FB75DE
:1068E00007F114031846FFF7FDFC00233B750A234C
:1068F0007B750223BB750323FB7507F11403184650
:10690000FFF7F0FC01233B7103237B710023BB7174
:106910000023FB7102233B7240F6C4137B810023EA
:106920003B61074BFB603B1D1846FFF7CFFD02465E
:10693000044B1A6000BF2037BD4680BD780400209C
:10694000496900086804002080B582B000AF0346A2
:10695000FB71FB7919460348FFF776FF00BF083744
:10696000BD4680BD78040020B0B586B000AF0D4BA9
:106970003C461D460FCD0FC495E80300206004344B
:106980002180094B1C683B46184600F051F803462D
:106990009AB23B4619462046FFF7DAFE00F006F8A9
:1069A000EFE700BFC06B00086804002080B483B02C
:1069B00000AF0023FB800CE00023BB8002E0BB881B
:1069C0000133BB80BB88B3F57A7FF8D3FB880133F2
:1069D000FB80FB8840F2DB529342EDD900BF0C37BD
:1069E000BD4680BC7047000070B50D4E0D4D761B46
:1069F000B61006D00024013455F8043B9847A6424F
:106A0000F9D1094E094D00F0CFF8761BB61006D02B
:106A10000024013455F8043B9847A642F9D170BDD3
:106A2000DC6B0008DC6B0008E46B0008DC6B000822
:106A300020F0030110F00300C0F1000051F8043B06
:106A400000F1040C4FEACC0C6FF000021CBF22FADC
:106A50000CF213434FF0010C4CEA0C2C4CEA0C4C9A
:106A6000A3EB0C0222EA030212EACC1204BF51F893
:106A7000043B0430F4D0C2F1000102EA0102B2FA90
:106A800082F2C2F11F0200EBD2007047024B13B139
:106A9000024800F005B8704700000000AD6A000829
:106AA000002301461A46184600F01EB838B50A4CB5
:106AB0000A4D641BA4100AD004F18043013B05EB8E
:106AC0008305013C55F804399847002CF9D1BDE8FD
:106AD000384000F06FB800BFE86B0008E46B0008B6
:106AE000704700BF704700BF2DE9F8432B4D0646A5
:106AF000286898460F469146FFF7F2FF284B1C681E
:106B0000D4F84831002B3DD05A681F2A0DDC02F121
:106B1000010C16BB0232C3F804C0286843F8227087
:106B2000FFF7E0FF0020BDE8F8831E4B7BB34FF476
:106B3000C870AFF30080034648B30020D4F8481172
:106B40004FF0010CC3E900100246C4F84831C3F805
:106B50008801C3F88C01002EDCD0012103EB8204F4
:106B6000C4F88890D3F8880191400843022EC3F8F6
:106B70008801C4F80881CDD1D3F88C010143C3F852
:106B80008C11C7E704F5A673C4F84831BCE7286840
:106B9000FFF7A8FF4FF0FF30C5E700BF300400202B
:106BA000D86B000800000000F8B500BFF8BC08BCB6
:106BB0009E467047F8B500BFF8BC08BC9E467047BB
:106BC0006170706C69636174696F6E2072756E6E4E
:0C6BD000696E670A0D000000080000203C
:086BDC008D6A0008555D0008F8
:046BE400315D000817
:106BE800A30108000000000000000000F4020020DB
:106BF8005C030020C4030020000000000000000027
:106C0800000000000000000000000000000000007C
:106C1800000000000000000000000000000000006C
:106C2800000000000000000000000000000000005C
:106C3800000000000000000000000000000000004C
:106C4800000000000000000000000000000000003C
:106C5800000000000000000000000000000000002C
:106C6800000000000000000000000000000000001C
:106C7800000000000000000000000000000000000C
:106C880000000000000000000000000000000000FC
:106C980001000000000000000E33CDAB34126DE699
:106CA800ECDE05000B000000000000000000000002
:106CB80000000000000000000000000000000000CC
:106CC80000000000000000000000000000000000BC
:106CD80000000000000000000000000000000000AC
:106CE800000000000000000000000000000000009C
:0470180088040020C8
:0400000508005D7121
:00000001FF
